:020000040800F2
:100000000000082029280008F9270008FB2700081D
:10001000FD270008FF270008012800080000000055
:10002000000000000000000000000000032800089D
:10003000052800080000000007280008092800081B
:10004000792800087928000879280008792800080C
:1000500079280008792800087928000879280008FC
:1000600079280008792800087928000879280008EC
:1000700079280008792800087928000879280008DC
:1000800079280008792800087928000879280008CC
:1000900079280008792800087928000879280008BC
:1000A00079280008792800087928000879280008AC
:1000B000792800087928000879280008792800089C
:1000C000792800087928000879280008792800088C
:1000D000792800087928000879280008792800087C
:1000E000792800087928000879280008792800086C
:1000F000792800087928000879280008792800085C
:10010000792800087928000879280008792800084B
:10011000792800087928000879280008792800083B
:10012000792800087928000879280008792800082B
:10013000792800087928000879280008792800081B
:10014000792800087928000879280008792800080B
:1001500079280008792800087928000879280008FB
:1001600079280008792800087928000879280008EB
:100170007928000879280008792800080000000084
:1001800079280008792800087928000879280008CB
:1001900079280008792800087928000879280008BB
:1001A00079280008792800087928000879280008AB
:1001B000792800087928000879280008792800089B
:1001C0007928000879280008000000007928000834
:1001D000792800087928000879280008792800087B
:1001E000792800087928000879280008792800086B
:0801F0007928000879280008B5
:1001F80010B5054C237833B9044B13B10448AFF359
:1002080000800123237010BD0C00002000000000B6
:10021800D428000808B5034B1BB103490348AFF3C2
:10022800008008BD0000000010000020D42800084D
:1002380053B94AB9002908BF00281CBF4FF0FF3145
:100248004FF0FF3000F07AB9ADF1080C6DE904CE3B
:1002580000F006F8DDF804E0DDE9022304B0704799
:100268002DE9F0478C460D460446089E002B51D1D7
:100278008A4217466DD9B2FA82FEBEF1000F0BD042
:10028800CEF1200C01FA0EF520FA0CFC02FA0EF75A
:100298004CEA050C00FA0EF44FEA174A250CBCFB91
:1002A800FAF81FFA87F90AFB18CC45EA0C4508FB4F
:1002B80009F3AB420AD9ED1908F1FF3280F0238126
:1002C800AB4240F22081A8F102083D44ED1AA4B2E5
:1002D800B5FBFAF00AFB105544EA054400FB09F99E
:1002E800A14509D9E41900F1FF3380F00A81A1453D
:1002F80040F2078102383C44A4EB090440EA084074
:100308000021002E61D024FA0EF4002334607360BB
:10031800BDE8F0878B4207D9002E54D0002186E82B
:1003280021000846BDE8F087B3FA83F1002940F0C0
:100338008E80AB4202D3824200F2FA80841A65EBC7
:1003480003050120AC46002E3FD086E81010BDE81A
:10035800F08712B90127B7FBF2F7B7FA87FEBEF1AB
:10036800000F34D1EB1B3A0C1FFA87FC0121B3FBB9
:10037800F2F8250C02FB183345EA03450CFB08F399
:10038800AB4207D9ED1908F1FF3002D2AB4200F2B7
:10039800D1808046ED1AA3B2B5FBF2F002FB1055EE
:1003A80043EA05440CFB00FCA44507D9E41900F115
:1003B800FF3302D2A44500F2B8801846A4EB0C041F
:1003C80040EA08409DE731463046BDE8F087CEF167
:1003D800200405FA0EF307FA0EF720FA04F83A0C8F
:1003E80025FA04F448EA0308B4FBF2F14FEA184589
:1003F80002FB11441FFA87FC45EA044501FB0CF394
:10040800AB4200FA0EF409D9ED1901F1FF3080F082
:100418008A80AB4240F2878002393D44EB1A1FFACA
:1004280088F5B3FBF2F002FB103345EA034500FB05
:100438000CF3AB4207D9ED1900F1FF386FD2AB428C
:100448006DD902383D44EB1A40EA01418FE7C1F10A
:10045800200722FA07F88B4005FA01F448EA03035B
:1004680020FA07FE4FEA134CFD404EEA040EB5FB96
:10047800FCF94FEA1E440CFB19551FFA83F844EAAD
:10048800054509FB08F4AC4202FA01F200FA01FA48
:1004980008D9ED1809F1FF3043D2AC4241D9A9F18E
:1004A80002091D442D1B1FFA8EFEB5FBFCF00CFB48
:1004B80010554EEA054400FB08F8A04507D9E41892
:1004C80000F1FF3529D2A04527D902381C4440EA5B
:1004D8000940A4EB0804A0FB02894C45C6464D46DA
:1004E80015D312D056B1BAEB0E0364EB050404FA27
:1004F80007F7CB401F43CC40376074600021BDE84C
:10050800F0871846F8E69046E0E6C245EAD2B8EB2E
:10051800020E69EB03050138E4E72846D7E74046B1
:1005280091E78146BEE7014678E702383C4445E753
:10053800084608E7A8F102083D442BE7704700BFCA
:1005480038B50E4B05460E4A18784FF47A73B3FB4C
:10055800F0F31068B0FBF3F000F0E0F9044658B986
:100568000F2D09D8024629464FF0FF3000F09EF9BA
:10057800044B20461D6038BD012038BD0000002016
:10058800080000200400002008B5032000F07CF9D2
:100598000020FFF7D5FF01F0E5FF002008BD0000AF
:1005A800034A044B11681B780B441360704700BF63
:1005B8002800002000000020014B1868704700BF89
:1005C8002800002038B50446FFF7F6FF0546631CEF
:1005D8001EBF044B1B78E418FFF7EEFF401B844254
:1005E800FAD838BD0000002038B50446002800F0CD
:1005F8009B80056C25B901F0CDFF656484F83C50FB
:10060800236CDB0600F18E80236C23F4885323F0DF
:10061800020343F002032364444B5A6822F4403235
:100628005A605A6861680A435A60236821695A689F
:1006380022F480725A605A6842EA0122A1685A601C
:100648005A6822F040725A605A680A43E1685A6050
:100658009A6822F400629A609A680A4334499A6058
:10066800A26A8A4252D0996821F0706199609968AB
:100678000A43E16A9A609A6822F040529A609A683E
:100688000A439A609A68A16922F002029A609A68FD
:1006980042EA41029A6094F82020002A3ED05A6823
:1006A800616A42F4006201395A605A6822F4604271
:1006B8005A605A6842EA41325A600020DA6AE169AF
:1006C80022F470020139DA62DA6A42EA015294F8D5
:1006D8003010DA629A6822F400729A609A6842EAE4
:1006E800412261699A609A6822F480629A609A68E5
:1006F80042EA81229A606064236C23F0030343F08A
:1007080001032364002384F83C3038BD9A6822F042
:1007180070629A609A6822F04052B2E75A6822F4EE
:100728000062C9E70120EDE7012038BD0023014040
:100738000100000F0023F7B5019390F83C30012B1E
:100748007AD00D6801230468092D80F83C30AEB2D8
:100758008A6834D9B5F1004F31D006EB46034FF023
:10076800070EE7681E3B0EFA03FE27EA0E07E7604E
:10077800404FBD421ED1E36843EA0263E3604A6822
:10078800062A4FEA82032AD81344676B591F1F238E
:100798008B4006FA01F127EA03036363626B114396
:1007A8006163354B9C4239D0002380F83C301846B1
:1007B80003B0F0BDE76802FA03F33B43DEE706EB5C
:1007C80046034FF0070E27690EFA03FE02FA03F3F9
:1007D80027EA0E07276127693B432361CFE70C2AE5
:1007E8000ED81344216BA3F123021F23934006FA6A
:1007F80002F221EA03032363236B1A432263D0E73F
:1008080013441F22E16A413B9A4021EA020206FA98
:1008180003F1E262E26A1143E162C2E7B5F1004F17
:100828000CD1164A536823F440035360BCE7134ABB
:10083800536843F48003F8E70220B9E7122DF6D095
:100848000C4B9D4201D0112DAED10C499D424A68F6
:1008580042F400024A60A7D1094B0A4A1B68B3FB5D
:10086800F2F20A2353430193019B002B9CD0019B76
:10087800013BF8E71200001000200140002301406E
:100888000800002040420F00074A0002D36800F425
:10089800E06023F4E0631B041B0C43F0BF6343F4E4
:1008A80000330343D360704700ED00E0194B30B5C7
:1008B800DC68C4F30224C4F10703251D042B28BFF8
:1008C8000423062D4FF001058CBF033C002405FAD4
:1008D80003F3002803F1FF3301EA030101FA04F1ED
:1008E80005FA04F404F1FF3402EA040242EA0102C0
:1008F8004FEA021207DB00F16040D2B200F5614016
:1009080080F8002330BD00F00F00D2B2024B1A5419
:1009180030BD00BF00ED00E014ED00E00138B0F19B
:10092800807F0AD2064BF021064A5860002082F8E0
:100938002310072298601A6070470120704700BF93
:1009480010E000E000ED00E070B5044629B14FF476
:100958000063C3604FF480438360E3692268002B1F
:10096800E068A368156808BF4FF4806143EA000394
:100978002E4818BF0021284043F400730343012088
:100988000B4313601568FFF71DFE23684022012002
:100998001D605A605D68FFF715FE236801205D60E1
:1009A80000259D60DD609A6922F0BE021204120CD7
:1009B80042F080029A619E69FFF704FE23680120D5
:1009C8009E61DD61DD69FFF7FDFD22680120184B9E
:1009D800D56141F2180551590B4043F0087343F0B3
:1009E800040353515659FFF7EDFD23680120114ABE
:1009F8005E5103F580531A601D68FFF7E3FD226816
:100A080002F580531D60A369012B07D141F21C0137
:100A1800535843F4803343F0400353506369064A04
:100A2800998811601A68054B1A6070BD0F8120FF04
:100A3800233FDEF88020C10240800240448002400B
:100A4800F8B590F8443005461646822B30D0026837
:100A58008223890180F84430136901F4F86403F0B3
:100A68001C012143048AE402A4B20C4344F00104AB
:100A78001461FFF7A1FD074614F0010007D12B68A8
:100A88005B699BB23360012385F84430F8BDFFF7FA
:100A980093FDC01BB0F5803F07D30123032085F8E1
:100AA8004430002385F84530F8BD2B681C69E3E71E
:100AB8000220F8BD90F84430422B70B505462ED080
:100AC80042238C0192B280F8443004F4F86403683D
:100AD80044F00304186900F01C0020432C8A5A6172
:100AE800E402A4B204431C61FFF766FD064614F055
:100AF800010003D1012385F8443070BDFFF75CFD88
:100B0800801BB0F5803F07D30123032085F84430CC
:100B1800002385F8453070BD2B681C69E7E7022083
:100B280070BD00000023F7B504460093002800F0CC
:100B3800DC8090F8443003F0FF021BB980F84520B0
:100B480001F056FD6A4B5A6C42F480425A645B6C61
:100B580003F480430193019B664B5A6822F4000218
:100B68005A605A68216A0A435A60236803F5805319
:100B78001A6842F001021A60FFF71EFD0546236855
:100B880003F580521268D0071DD41D6900F02AFDB4
:100B9800594B5A4A25F01C050344934222D845F084
:100BA800080523684FF40042002120461D61FFF725
:100BB80081FF054668B3012501212046FFF7C4FEE1
:100BC80084F844500BE0FFF7F7FC401BB0F5FA7FC0
:100BD800D5D90325002384F8445084F845302846A5
:100BE80003B0F0BD464B474A0344934202D845F050
:100BF8000C05D6E7444B454A03449342D1D9444BAC
:100C0800444A0344934294BF45F0040545F0100557
:100C1800C7E7FF20FFF7D6FC6368002B53D0FFF728
:100C2800CBFC41F2883706466A4601212046FFF789
:100C380007FFFFF7C1FC801BB8420BD901212046F2
:100C4800FFF782FE0123032584F84430002384F84B
:100C58004530C4E7009B5907E6D54FF48052002180
:100C68002046FFF727FF0028A5D1FFF7A5FC41F292
:100C7800883706466A4601212046FFF7E1FEFFF75E
:100C88009BFC801BB842D9D8009B9A06F2D56A46CD
:100C98001F212046FFF7D4FE00288CD1009B13F0BB
:100CA800100218BF4FF400625B074CBF00234FF4DB
:100CB8008043E260A36000212046FFF745FE012340
:100CC80084F844308BE7A3682946E26820465B082D
:100CD80043EAD20292B2FFF7EDFE00287FF46BAF31
:100CE80040F6FF70FFF76EFCE5E7012577E700BFE8
:100CF800003802400038014000D3CEFEBFE1E400D6
:100D080040F1E9FD3F787D0100796CFCFF596202F2
:100D1800001F0AFA7FF0FA022DE9F04F0B6885B040
:100D2800DFF8C081019300236C4ADFF8BC910124ED
:100D3800019D9C402540AC4240F0B6804C684FEA8B
:100D4800430E24F0100C0CF1FF36012E12D80326A6
:100D5800876806FA0EF627EA0607CE6806FA0EF640
:100D68003E438660C4F3001647689E4027EA05079D
:100D78003E4346600326C768BCF1020F06FA0EF62A
:100D88006FEA060607EA060A8F6807FA0EF747EAC7
:100D98000A07C76016D14FEAD30A03F0070B4FF0D2
:100DA8000F0C00EB8A0A4FEA8B0BDAF820700CFA6A
:100DB8000BFC27EA0C0C0F6907FA0BF747EA0C073C
:100DC800CAF8207007683E4004F0030707FA0EFED1
:100DD8004EEA06060660E60066D5D8F8446023F0B9
:100DE800030703F0030E4FF00F0C46F4804607F19B
:100DF80080474FEA8E0EC8F8446007F59C37D8F84C
:100E0800446006F480460396039E0CFA0EF6D7F863
:100E180008A02AEA060C324EB0424CD006F580668D
:100E2800B0424AD006F58066B04248D006F58066E2
:100E3800B04246D006F58066B04244D0484544D01A
:100E480006F50066B04242D006F58066B04240D052
:100E580006F58066B0423ED006F58066B04214BF03
:100E68000A26092606FA0EF614F4803F46EA0C060E
:100E7800BE606FEA050716680CBF3E402E4314F4A7
:100E8800003F166056680CBF3E402E4314F4801F86
:100E9800566096680CBF3E402E43A4029660D66802
:100EA80054BF3E402E43D6600133102B7FF43FAF32
:100EB80005B0BDE8F08F0026D4E70126D2E7022668
:100EC800D0E70326CEE70426CCE70526CAE70626A0
:100ED800C8E70726C6E70826C4E700BF003C01406C
:100EE8000000024000380240001402400AB181614B
:100EF80070470904FBE743690B4218BF0904816185
:100F08007047F0B504468BB060B390F8BD33056800
:100F180003F0FF021BB980F8BC2301F023FC032374
:100F28006E46271D84F8BD33EB6B254613F480739A
:100F380055F8100B08BF236101F0B5F80FCD0FC6A7
:100F48000FCD0FC695E80300254686E8030097E80D
:100F58000E0055F8100B01F06BF8064620B102237D
:100F680084F8BD33012554E00146206801F0A1F85A
:100F78003046D4F804E01C264FF0010C0146C2B2FA
:100F8800013096451BD800231C261946D8B20133D8
:100F9800864522D80FCD6E460FC60FCD0FC695E8F1
:100FA800030086E8030097E80E00206801F0C2F805
:100FB8000123054600B3022284F8BD23D2E706FBCD
:100FC800024383F83DC083F83C20A3F8422083F80D
:100FD8003F10596499641965D1E706FB004282F80D
:100FE800FD1182F8FC0182F8FF11C2F80412C2F860
:100FF8000812C2F81012C9E784F8380084F8BD3323
:10100800636A012B02D1204600F006F8206801F03F
:101018004BF928460BB0F0BD012102680346C0F821
:10102800FC13002083F8F403936943F00063936191
:10103800536D43F0805343F003035365704700003A
:10104800024A136843F480731360704700700040CD
:10105800194B37B51A6C194C42F080521A641B6C44
:1010680003F080530193019B236843F4803323608A
:10107800FFF7A2FA05466368DA030CD5236843F440
:1010880000332360FFF798FA0C4C054663689B030E
:101098000AD5002006E0FFF78FFA401BB0F57A7FEB
:1010A800E9D9032003B030BDFFF786FA401BB0F53D
:1010B8007A7FEBD9F5E700BF0038024000700040A6
:1010C8002DE9F341044608B901203FE00368D80739
:1010D80010D42368990760D42368190700F1A58004
:1010E80023685A0700F1C680A069002840F03081C3
:1010F80000202BE0944B9A6802F00C02042A07D0D7
:101108009A6802F00C02082A0AD15B685A0207D5CD
:101118008D4B1B689B03DCD56368002BD9D1D3E7C3
:101128006368894DB3F5803F13D12B6843F480334E
:101138002B60FFF741FA844D06462B689F03C8D4FD
:10114800FFF73AFA801B6428F7D9032002B0BDE8FC
:10115800F0819BB92B6823F480332B602B6823F430
:1011680080232B60FFF728FA06462B689803B0D532
:10117800FFF722FA801B6428F7D9E6E7B3F5A02F1A
:101188002B6803D143F480232B60CEE723F480330C
:101198002B602B6823F48023CAE76B4B9A6812F004
:1011A8000C0F07D09A6802F00C02082A11D15B686C
:1011B80059020ED4644B1A68920702D5E268012AD4
:1011C80082D11A68216922F0F80242EAC1021A6043
:1011D80082E7E3685C4DBBB12B6843F001032B60E9
:1011E800FFF7EAF906462B689F0707D52B6822699F
:1011F80023F0F80343EAC2032B606DE7FFF7DCF93D
:10120800801B0228EFD9A0E72B6823F001032B608D
:10121800FFF7D2F906462B6898077FF55DAFFFF711
:10122800CBF9801B0228F6D98FE76369464D83B155
:101238006B6F43F001036B67FFF7BEF906466B6FF0
:101248009B073FF54DAFFFF7B7F9801B0228F6D98A
:101258007BE76B6F23F001036B67FFF7ADF9064679
:101268006B6F9F077FF53CAFFFF7A6F9801B02283D
:10127800F6D96AE7344B1A6CD00027D41A6C0126C9
:1012880042F080521A641B6C03F080530193019B57
:101298002E4D2B68D9051BD5A3682B4D012B27D1C3
:1012A8002B6F43F001032B6741F28835FFF784F970
:1012B800254F80463B6F9B073FD5002E3FF414AF68
:1012C800214A136C23F0805313640DE70026DFE7EF
:1012D8002B6843F480732B60FFF76EF907462B6881
:1012E800DA05D9D4FFF768F9C01B6428F7D92CE7C9
:1012F800ABB92B6F41F2883823F001032B672B6FB2
:1013080023F004032B67FFF757F907462B6F98075D
:10131800D3D5FFF751F9C01B4045F7D915E7052B81
:101328002B6F03D143F004032B67B9E723F00103C4
:101338002B672B6F23F00403B5E7FFF73DF9A0EB0C
:101348000800A842B6D900E7003802400070004003
:101358003C4DAB6803F00C03082B42D02B680228E5
:1013680023F080732B602FD1FFF726F906462B68F0
:10137800990123D4226AE3691343626A43EA821318
:10138800E26A43EA0263226B43EA0273A26A2D4CC3
:101398005208013A43EA02436B602B6843F08073BA
:1013A8002B60FFF709F9054623689A013FF5A0AEBF
:1013B800FFF702F9401B0228F6D9C6E6FFF7FCF84A
:1013C800801B0228D3D9C0E6FFF7F6F804462B683D
:1013D8009B017FF58DAEFFF7EFF8001B0228F6D9C9
:1013E800B3E601286B683FF4B1AE03F48002E1690B
:1013F8008A427FF469AE03F03F02216A8A427FF491
:1014080063AE47F6C072616A1A40B2EB811F7FF47F
:101418005BAEA26A03F440315208013AB1EB024FC5
:101428007FF452AE03F07062E16AB2EB016F7FF4B1
:101438004BAE226B03F0E043B3EB027F14BF0120F5
:10144800002083E600380240134908B58B6803F092
:101458000C03042B03D0082B03D0104808BD1048F8
:1014680008BD4A684B68496802F03F0213F48003DC
:10147800C1F388111ABF0A4800230848A1FB0001DC
:10148800FEF7D6FE044B5B68C3F3014301335B00F0
:10149800B0FBF3F008BD00BF003802400024F400A0
:1014A80000127A002DE9F0410D46044610B90120DA
:1014B800BDE8F081464A136803F00F038B4229D335
:1014C80021688F0731D4C80744D4414A136803F010
:1014D8000F039D4268D32268510771D4130707D5BB
:1014E8003C4A2169936823F4604343EAC10393604B
:1014F800FFF7AAFF374B384A9B68C3F30313D35C43
:10150800D840364B1860364B1868FFF719F800209A
:10151800BDE8F081136823F00F030B4313601368D1
:1015280003F00F039942C2D1CAE711F0040F294B07
:1015380003D09A6842F4E0529A600E0703D59A687D
:1015480042F460429A609A68A06822F0F00202436E
:101558009A60B8E761681F4B01291A681CD112F418
:10156800003FA4D09A6841F288381A4E22F003024C
:101578000A439A60FFF720F80746B368626803F0E9
:101588000C03B3EB820FA0D0FFF716F8C01B404541
:10159800F3D90320BDE8F081022902D112F0007FBF
:1015A800DFE712F0020FDCE7136823F00F032B4389
:1015B8001360136803F00F039D427FF478AF8AE746
:1015C8000449E0688B6823F4E05303438B6085E7A4
:1015D800003C024000380240FD28000808000020B6
:1015E80004000020014B1868704700BF0800002065
:1015F800044B054A9B68C3F38223D35C034A1068F3
:10160800D8407047003802400D2900080800002023
:10161800044B054A9B68C3F34233D35C034A106802
:10162800D8407047003802400D2900080800002003
:101638002DE9F7430268044612F001060BD0BA4BB5
:10164800996821F400019960466B99683143B6FAAC
:1016580086F67609996012F4002512D0B249E56B36
:10166800D1F88C30B5F5801F23F4401308BF01264C
:1016780043EA050316BFB5FA85F500256D09C1F8DB
:101688008C30D70210D5A848216CD0F88C30B1F531
:10169800800F23F4400343EA0103C0F88C3000F0C4
:1016A800A981002908BF012512F0807F18BF0126F3
:1016B800900631D59C4B9D4F1A6C42F080521A64AB
:1016C8001B6C03F080530193019B3B6843F48073C8
:1016D8003B60FEF771FF80463B68D90540F18C817D
:1016E800914F3B6F13F4407340F09181236B03F4E7
:1016F8004072B2F5407F8C4A40F0AF81916823F088
:10170800704021F4F81120F4407001439160C3F354
:101718000B03116F0B4313672368DF060CD5824A4E
:10172800D2F88C1021F08071C2F88C10D2F88C108D
:10173800A06B0143C2F88C10580408D57A49606E32
:10174800D1F8902022F440320243C1F890201904C5
:1017580008D57549A06ED1F8902022F440220243A2
:10176800C1F89020DA0308D56F49E06ED1F89020CF
:1017780022F440120243C1F890209F0308D56A4919
:10178800206FD1F8902022F440020243C1F8902043
:10179800580608D56449606CD1F8902022F00302FD
:1017A8000243C1F89020190608D55F49A06CD1F80A
:1017B800902022F00C020243C1F89020DA0508D5E7
:1017C8005949E06CD1F8902022F030020243C1F868
:1017D80090209F0508D55449206DD1F8902022F01B
:1017E800C0020243C1F89020580508D54E49606DE3
:1017F800D1F8902022F440720243C1F890201905D4
:1018080008D54949A06DD1F8902022F440620243DE
:10181800C1F89020DA0408D54349E06DD1F890204A
:1018280022F440520243C1F890209F0408D53E4953
:10183800206ED1F8902022F440420243C1F8902053
:10184800580208D53849A06FD1F8902022F080625C
:101858000243C1F8902099020CD53348E16FD0F8C3
:101868009020B1F1006F22F0006208BF01250A4301
:10187800C0F8902013F0080F18BF01255A0308D5A7
:101888002949606FD1F8902022F040720243C1F8D4
:1018980090201F0209D52449D4F88000D1F890205F
:1018A80022F080520243C1F89020580109D51E4900
:1018B800D4F88400D1F8902022F000520243C1F8F5
:1018C8009020190109D51849D4F88800D1F88C203E
:1018D80022F000720243C1F88C20DA0009D51249BF
:1018E800D4F88C00D1F88C2022F080620243C1F831
:1018F8008C20012E00F0B580B3F1007F00F0B1809C
:10190800012D75D1084D2B6823F080532B60FEF70D
:1019180053FE06462B689F0000F1278121680E03BD
:1019280006D5E36B43B103E0003802400070004085
:10193800CD021DD5236CDBB9934AD2F88830D2F892
:10194800880003F4403300F0E0400343606943EA51
:101958008013A06943EA0063C2F88830D2F88C305B
:10196800A06A23F4F853013843EA0023C2F88C3004
:10197800880215D5E36FB3F1006F11D1824AD2F80E
:101988008830D2F8880003F0706300F0E040034329
:10199800606943EA8013206A43EA0043C2F888304A
:1019A8000A0719D57849D1F88820D1F8883002F08B
:1019B800706203F440331343626943EA8213E269B5
:1019C80043EA0273C1F88830D1F88C30E26A23F414
:1019D80040331343C1F88C306B4C236843F0805379
:1019E8002360FEF7E9FD054623689B0040F1C480AB
:1019F800002009E0012657E6FEF7DEFDA0EB08000F
:101A080064287FF669AE032003B0BDE8F083226B3B
:101A180002F4407293423FF469AE3B6F3A6F23F48D
:101A2800407342F480323A673A6F22F480323A6760
:101A38003B673B6FDA077FF559AEFEF7BDFD41F214
:101A4800883980463B6F9B073FF550AEFEF7B4FDE3
:101A5800A0EB08004845F5D9D5E7916821F4F811BD
:101A680054E6494E336823F080633360FEF7A4FDE3
:101A7800074633681B0172D42268D70712D5636BF7
:101A880083B9D6F88430D6F8841003F4403301F0D3
:101A980070610B43616843EA8113A16843EA0173EB
:101AA800C6F88430160303D5E36BB3F5801F05D061
:101AB800D0021ED5236CB3F5800F1AD13249D1F864
:101AC8008430D1F8840003F4403300F0E04003434D
:101AD800606843EA8013E06843EA0063C1F8843031
:101AE800D1F88C00636A20F01F00013B0343C1F862
:101AF8008C30D10111D52449D1F88430D1F8840033
:101B080003F0706300F0E0400343606843EA801329
:101B1800206943EA0043C1F8843092010DD5236956
:101B280062681B0443EA8213E26843EA0263A2681C
:101B380043EA0273144AC2F88430134E336843F000
:101B480080633360FEF738FD074633681B013FF5B5
:101B5800D7AEFEF731FDC01B6428F6D953E7FEF770
:101B68002BFDC01B642884D94DE7FEF725FD801B9B
:101B780064287FF6CFAE46E7FEF71EFD401B6428BB
:101B88007FF632AF3FE700BF0038024038B5C26980
:101B980004460368816800691D6801436069014360
:101BA800904811432840256A0143E0681960596844
:101BB80021F4405101435960A1699868294320F4F0
:101BC80030600143996088498B4217D1874B884917
:101BD800D3F8903003F00303B2F5004FCB5C29D162
:101BE800082B00F29D80DFE813F08C00E800EE007F
:101BF8009B00FA009B009B009B0076007D498B426E
:101C080006D17A4B7C49D3F8903003F00C03E3E714
:101C18007A498B421DD1754BD3F8903003F03003CD
:101C2800102B00F0D9800ED8002B67D0B2F5004FEA
:101C380076D01023082B73D8DFE803F0999FA2729F
:101C4800B4727272B700202B00F0BA80302B3FD0EC
:101C5800ECE76B498B420DD1644BD3F8903003F01D
:101C6800C003402B00F0B880DED9802B00F0A8809C
:101C7800C02BECE763498B4210D15C4BD3F8903012
:101C880003F44073B3F5807F00F0A680CCD9B3F598
:101C9800007F00F09580B3F5407FD8E75A498B4222
:101CA8001ED1524BD3F8903003F44063B3F5806FE4
:101CB80000F0928006D8002B7CD0B2F5004F2FD1CF
:101CC80010238DE7B3F5006F7AD0B3F5406FF4D1E8
:101CD800B2F5004F69D16368580800F5803078E0A4
:101CE8004A498B4224D1414BD3F8903003F44053F6
:101CF800B3F5805F70D015D8002BDED1B2F5004F58
:101D080035D1FFF775FC6268530803EB4000B0FB60
:101D1800F2F080B24FF6EF73A0F110029A421AD98E
:101D2800012020E0B3F5005F4AD0B3F5405FCEE76D
:101D380037498B42F4D12D4BD3F8903003F440430C
:101D4800B3F5804F48D07FF66FAFB3F5004F37D06B
:101D5800B3F5404F7BE720F00F03C0F34200226841
:101D68001843D060002000232366636638BDFFF760
:101D78003FFC636800EB530008E0FFF749FCF8E715
:101D88006368580800F5740000F51050B0FBF3F0D4
:101D980080B24FF6EF73A0F110029A42C0D82368C0
:101DA800D860DFE7FFF750FBE3E76368580800F502
:101DB8000040EBE7B2F5004FDFD1FFF729FCA2E7BF
:101DC800B2F5004FDCD16368580800F1F47000F5F3
:101DD8009040B0FBF3F09CE7B2F5004FE2D1FFF77B
:101DE80033FB90E7F369FFEF001001400038024031
:101DF800EC28000800440040F02800080048004093
:101E0800004C0040005000400014014000780040A1
:101E1800007C0040436ADA0710B506D50168846A79
:101E28004A6822F4003222434A609C0706D50168BA
:101E3800C46A4A6822F4803222434A60590706D5A8
:101E48000168046B4A6822F4802222434A601A0718
:101E580006D50168446B4A6822F4004222434A606E
:101E6800DC0606D50168846B8A6822F48052224316
:101E78008A60990606D50168C46B8A6822F4005204
:101E880022438A605A0610D50168046C4A68B4F582
:101E9800801F22F4801242EA04024A6005D14A688F
:101EA800446C22F4C00222434A601B0606D502682D
:101EB800816C536823F400230B43536010BD2DE954
:101EC800F041069D04460F46164698462168CA69A1
:101ED80037EA02030CBF01220022B24202D00020DE
:101EE800BDE8F081681CF2D0FEF766FBA0EB0800A5
:101EF80085422068036800D37DB923F4D07303605A
:101F0800836823F00103836020236367A3670023AA
:101F1800032084F87030BDE8F0815A07D6D5C3692C
:101F28001B05D3D54FF400630362036823F4D07311
:101F38000360836823F00103836020236367A3673A
:101F4800E367E4E773B500260446C667FEF734FB8B
:101F5800236805461B681A0715D423681B685B07A6
:101F68000AD56FF07E4300224FF48001204600938B
:101F78002B46FFF7A4FF90B920230020636784F85D
:101F88007000A3670CE06FF07E4332464FF40011F7
:101F9800009303462046FFF792FF0028DDD0032078
:101FA80002B070BD10B5044640B3436F1BB980F84A
:101FB800703000F0A3FB226824232046636713686F
:101FC80023F001031360FFF7E1FD012816D0636ACF
:101FD80013B12046FFF71EFF236820465A6822F4F3
:101FE80090425A609A6822F02A029A601A6842F06F
:101FF8000102BDE810401A60FFF7A4BF012010BD20
:102008000A4B013B01D1032070470269002AF8DA24
:102018000369064A43F001030361013AF3D00369F7
:1020280013F00103F9D11846704700BF410D0300B2
:1020380084B038B505AD044685E80E000A9B012B2F
:1020480026D1836B23F480338363C36823F484032A
:1020580023F04003C360C36823F44013C360119B9B
:10206800012B03D1C36843F48013C3602046FFF7F4
:10207800C7FF089B012B07D1A36843F00603A360A1
:10208800A36843F02003A360BDE8384004B070475C
:10209800C36843F04003C360FFF7B2FFA36B43F488
:1020A8008033A363E5E7836823F00103836000209E
:1020B800704708B5C368012923F0C043C36008D13D
:1020C800C36843F00053C3603220FEF77BFA002058
:1020D80008BD19B9C36843F08043F4E7012008BD7F
:1020E8008901074A41F020010161013A05D00369DD
:1020F80013F02003F9D1184670470320704700BF3A
:10210800410D03001023064A0361013A05D0036913
:1021180013F01003F9D1184670470320704700BF29
:10212800410D0300D0F800381943C0F8001800200A
:102138007047000084B02DE9F843044609A80F460B
:1021480080E80E0000230B9A0E99139D1E4603F19A
:102158004000013304EB80000F2B4660F7D104F5F3
:102168000066002D6BD1736843F002037360A36BA4
:1021780023F40013A363236843F040032360236818
:1021880043F08003236000230129C4F8003ED4F8FB
:102198000038C4F8003859D1002A55D1002120460A
:1021A800FFF7C0FF10212046FFF79AFF014620469F
:1021B800FFF7A8FF00284DD1081C18BF01200023F5
:1021C80004F510624FF0904E4FF0006C19464FF630
:1021D8007F3833617361F361BB423DD1002104F55F
:1021E80030624FF0904E4FF0006C0F464FF67F383C
:1021F8008B4244D1336923F4807333610023A36194
:102208006FF0804363610C9B1BB9A36943F0100313
:10221800A361A269234B1343A3610F9B1BB1A3695D
:1022280043F00803A361012D05D1A36943F080435E
:1022380043F00403A361BDE8F84304B07047A36BFF
:1022480043F40013A3639EE70121A8E70329A3D061
:102258000321A4E70120B2E7D2F80090B9F1000FFA
:102268000BDA3BB9C2F800C011610133C2F808802B
:102278002032B1E7C2F800E0F6E71160F4E7D2F8DF
:102288000090B9F1000F0BDA39B9C2F800C0176134
:102298000131C2F808802032AAE7C2F800E0F6E768
:1022A8001760F4E700383C8008B5D0F8043843F0EC
:1022B8000203C0F804380320FEF784F9002008BDA3
:1022C80010B5B8B034220021022407A800F0F6FAAD
:1022D8001422002102A800F0F1FA0021902214A88B
:1022E80000F0ECFAFEF7ACFE1F4B07A81A6C42F0A0
:1022F80080521A641B6C1D4A03F080530093009BA4
:10230800136823F4404343F4804313601368602246
:102318000D9403F44043109211940193019B0123FF
:1023280007934FF4A02308934FF480030E930423DC
:102338000F931293FEF7C4FEFEF78AFE0F23039451
:10234800002402934FF48053032102A805930494B8
:102358000694FFF7A7F8064B14A827941493339410
:10236800FFF766F938B010BD003802400070004031
:102378000001200000B58DB00024FEF705F9012604
:10238800FFF79EFF1422002107A800F097FA684B78
:1023980044F2810167481A6B802542F004021A63EF
:1023A8001A6B02F004020192019A1A6B42F0800241
:1023B8001A631A6B02F080020292029A1A6B42F0B8
:1023C80001021A631A6B02F001020392039A1A6B54
:1023D80042F002021A631A6B02F002020492049A93
:1023E8001A6B42F008021A631A6B02F0080205928F
:1023F800059A1A6B42F040021A6300221B6B03F025
:1024080040030693069BFEF771FD002240214A48CF
:10241800FEF76CFD4FF4005307A948480793484B53
:1024280009940893FEF778FC44F2810307A9414810
:10243800079309940A940896FEF76EFC402307A9AF
:102448003D48079309940A940896FEF765FC07A986
:102458003948079508940994FEF75EFC3948E1224B
:10246800394B048280E8480043691C7043695D70F9
:102478004369364D9A704369DC7043691C7143693E
:102488005C714FF400038461C4610362FEF74AFB88
:102498002F484FF4E1332F4A8460C460046184619B
:1024A800C4610462446280E80C000C234361FFF7B6
:1024B80079FD29484FF0A041062304610462446273
:1024C8000463C661C66280E80A000223C3608361B0
:1024D800FEF717FD2146102207A800F0EFF91F4864
:1024E8004FF48033AC602C61AC6185F82040EC621D
:1024F800EC6085F83040EE616E6185E80900184BA4
:102508002846AB62FEF770F8079407A9099404F10E
:1025180080442846089604F50134FEF70BF9204656
:102528008021FEF7E8FC4FF47A70FEF74BF8F6E7E7
:10253800003802400004024000180240000802402F
:1025480000001110F804002000800240B0040020B0
:102558002C00002000480040AC0000200020014072
:102568000100000F0A4B82B01A6C42F080521A64C4
:102578001A6C02F080520092009A5A6C42F480421F
:102588005A645B6C03F480430193019B02B070476B
:102598000038024010B588B004461422002103A870
:1025A80000F08CF92268104B9A421BD103F58C334A
:1025B80003A90E485A6C42F480725A645A6C02F4A9
:1025C80080720192019A1A6B42F001021A631B6B26
:1025D80003F001030293029B012303930323049353
:1025E800FEF79AFB08B010BD002001400000024031
:1025F800F0B58DB004461422002107A800F05EF95A
:102608002268394B9A426DD1A3F5904302260325DF
:102618000B241A6B07A93548002742F000721A6389
:102628001A6B02F000720092009A1A6B42F08062F4
:102638001A631A6B02F080620192019A1A6B42F0D7
:1026480000621A631A6B02F000620292029A1A6B15
:1026580042F004021A631A6B02F004020392039A0E
:102668001A6B42F001021A631A6B02F0010204921B
:10267800049A1A6B42F002021A631A6B02F0020201
:102688000592059A1A6B42F040021A631B6B089672
:1026980003F040030A950B940693069B3223079395
:1026A800FEF73AFB862307A911480793089609976E
:1026B8000A950B94FEF730FB4FF4005307A90D4819
:1026C8000793089609970A950B94FEF725FB4FF494
:1026D800205307A908480793089609970A950B9469
:1026E800FEF71AFB0DB0F0BD008002400008024062
:1026F80000000240000402400018024010B588B0F3
:1027080004461422002103A800F0D8F82268134BCD
:102718009A4220D103F5F83303A911481A6C42F400
:1027280080221A641A6C02F480220192019A1A6BB0
:1027380042F008021A631B6B03F008030293029B22
:102748004FF4407303930223049303230693072350
:102758000793FEF7E1FA08B010BD00BF004800403B
:10276800000C024010B588B004461422002103A8CA
:1027780000F0A4F82368B3F1A04F32D11A4C03A992
:102788001A48236B43F001032363236B03F001030F
:102798000093009B4FF4E85303930223049303230D
:1027A80006930A230793FEF7B7FA4FF4007303A9B9
:1027B8000E480393002304930593FEF7ADFA636B69
:1027C80043F080036363636B03F080030193019B11
:1027D800636C43F480436364636C03F48043029343
:1027E800029B08B010BD00BF003802400000024044
:1027F8007047FEE7FEE7FEE7FEE770477047704761
:10280800FDF7CEBE054BD3F8882042F47002C3F81A
:1028180088204FF000629A60704700BF00ED00E02A
:10282800DFF834D0002103E00C4B5B5843500431EF
:102838000B480C4B42189A42F6D30B4A02E000238D
:1028480042F8043B094B9A42F9D3FFF7DBFF00F04B
:1028580011F8FFF78FFD70470000082028290008AD
:10286800000000200C0000200C0000204005002083
:10287800FEE7000070B50D4E0D4CA41BA4100025FA
:10288800A54209D10B4E0C4C00F020F8A41BA41053
:102898000025A54205D170BD56F825309847013569
:1028A800EEE756F8253098470135F2E72029000869
:1028B800202900082029000824290008024403468A
:1028C800934200D1704703F8011BF9E7F8B500BF40
:1028D800F8BC08BC9E467047F8B500BFF8BC08BCF9
:0428E8009E46704751
:1028EC000104020800101010041010100210101037
:1028FC0008000000000000000001020304060708A5
:0C290C00090000000001020304000000AC
:0829180050D9FF7F010000000F
:042920001D0200088C
:04292400F9010008AD
:0C29280001000000100000000024F4007A
:04000005080028299E
:00000001FF
