:020000040800F2
:1000000000000820313200085D3100085F3100082F
:10001000613100086331000865310008000000000C
:100020000000000000000000000000006731000830
:1000300069310008000000006B3100086D310008D4
:1000400081320008813200088132000881320008C4
:1000500081320008813200088132000881320008B4
:1000600081320008813200088132000881320008A4
:100070008132000881320008813200088132000894
:100080008132000881320008813200088132000884
:100090007131000881320008813200088132000885
:1000A0008132000881320008813200088132000864
:1000B0007D31000881320008813200088132000859
:1000C0008132000881320008813200088132000844
:1000D0008132000881320008813200088132000834
:1000E0008132000881320008813200088132000824
:1000F0008132000881320008813200088132000814
:100100008132000881320008813200088132000803
:1001100081320008813200088132000881320008F3
:1001200081320008813200088132000881320008E3
:1001300081320008813200088132000881320008D3
:1001400081320008813200088132000881320008C3
:1001500081320008813200088132000881320008B3
:1001600081320008813200088132000881320008A3
:10017000813200088132000881320008000000004E
:100180008132000881320008813200088132000883
:100190008132000881320008813200088132000873
:1001A0008132000881320008813200088132000863
:1001B0008132000881320008813200088132000853
:1001C00081320008813200080000000081320008FE
:1001D0008132000881320008813200088132000833
:1001E0008132000881320008813200088132000823
:0801F000813200088132000891
:1001F80010B5054C237833B9044B13B10448AFF359
:1002080000800123237010BD24000020000000009E
:10021800DC32000808B5034B1BB103490348AFF3B0
:10022800008008BD0000000028000020DC32000823
:1002380053B94AB9002908BF00281CBF4FF0FF3145
:100248004FF0FF3000F07AB9ADF1080C6DE904CE3B
:1002580000F006F8DDF804E0DDE9022304B0704799
:100268002DE9F0478C460D460446089E002B51D1D7
:100278008A4217466DD9B2FA82FEBEF1000F0BD042
:10028800CEF1200C01FA0EF520FA0CFC02FA0EF75A
:100298004CEA050C00FA0EF44FEA174A250CBCFB91
:1002A800FAF81FFA87F90AFB18CC45EA0C4508FB4F
:1002B80009F3AB420AD9ED1908F1FF3280F0238126
:1002C800AB4240F22081A8F102083D44ED1AA4B2E5
:1002D800B5FBFAF00AFB105544EA054400FB09F99E
:1002E800A14509D9E41900F1FF3380F00A81A1453D
:1002F80040F2078102383C44A4EB090440EA084074
:100308000021002E61D024FA0EF4002334607360BB
:10031800BDE8F0878B4207D9002E54D0002186E82B
:1003280021000846BDE8F087B3FA83F1002940F0C0
:100338008E80AB4202D3824200F2FA80841A65EBC7
:1003480003050120AC46002E3FD086E81010BDE81A
:10035800F08712B90127B7FBF2F7B7FA87FEBEF1AB
:10036800000F34D1EB1B3A0C1FFA87FC0121B3FBB9
:10037800F2F8250C02FB183345EA03450CFB08F399
:10038800AB4207D9ED1908F1FF3002D2AB4200F2B7
:10039800D1808046ED1AA3B2B5FBF2F002FB1055EE
:1003A80043EA05440CFB00FCA44507D9E41900F115
:1003B800FF3302D2A44500F2B8801846A4EB0C041F
:1003C80040EA08409DE731463046BDE8F087CEF167
:1003D800200405FA0EF307FA0EF720FA04F83A0C8F
:1003E80025FA04F448EA0308B4FBF2F14FEA184589
:1003F80002FB11441FFA87FC45EA044501FB0CF394
:10040800AB4200FA0EF409D9ED1901F1FF3080F082
:100418008A80AB4240F2878002393D44EB1A1FFACA
:1004280088F5B3FBF2F002FB103345EA034500FB05
:100438000CF3AB4207D9ED1900F1FF386FD2AB428C
:100448006DD902383D44EB1A40EA01418FE7C1F10A
:10045800200722FA07F88B4005FA01F448EA03035B
:1004680020FA07FE4FEA134CFD404EEA040EB5FB96
:10047800FCF94FEA1E440CFB19551FFA83F844EAAD
:10048800054509FB08F4AC4202FA01F200FA01FA48
:1004980008D9ED1809F1FF3043D2AC4241D9A9F18E
:1004A80002091D442D1B1FFA8EFEB5FBFCF00CFB48
:1004B80010554EEA054400FB08F8A04507D9E41892
:1004C80000F1FF3529D2A04527D902381C4440EA5B
:1004D8000940A4EB0804A0FB02894C45C6464D46DA
:1004E80015D312D056B1BAEB0E0364EB050404FA27
:1004F80007F7CB401F43CC40376074600021BDE84C
:10050800F0871846F8E69046E0E6C245EAD2B8EB2E
:10051800020E69EB03050138E4E72846D7E74046B1
:1005280091E78146BEE7014678E702383C4445E753
:10053800084608E7A8F102083D442BE7704700BFCA
:1005480038B50E4B05460E4A18784FF47A73B3FB4C
:10055800F0F31068B0FBF3F000F05CFB044658B908
:100568000F2D09D8024629464FF0FF3000F00CFB4A
:10057800044B20461D6038BD012038BD0000002016
:10058800200000200400002008B5032000F0EAFA4B
:100598000020FFF7D5FF02F06FFC002008BD000027
:1005A800034A044B11681B780B441360704700BF63
:1005B8004800002000000020014B1868704700BF69
:1005C8004800002038B50446FFF7F6FF0546631CCF
:1005D8001EBF044B1B78E418FFF7EEFF401B844254
:1005E800FAD838BD0000002038B5044600286ED07F
:1005F80090F820300BB902F057FC2268136823F0FA
:1006080002031360FFF7D8FF054623685A6891076D
:1006180051D41A6842F001021A60FFF7CDFF05466F
:1006280023685A68D20754D5227E0020012A1A6806
:100638000CBF42F0800222F080021A60627E012A1A
:100648001A680CBF42F0400222F040021A60A27EF3
:10065800012A1A680CBF42F0200222F020021A6018
:10066800E27E012A1A680CBF22F0100242F0100242
:100678001A60227F012A1A680CBF42F0080222F091
:1006880008021A60627F012A1A680CBF42F004024D
:1006980022F004021A60E168A2680A4321690A4349
:1006A80061690A43616801390A43DA6101236062BA
:1006B80084F8203038BDFFF77FFF401B0A28A4D9F3
:1006C800636A43F400336362052384F82030012011
:1006D80038BDFFF771FF401B0A28A1D9F0E70000D9
:1006E80090F82030013B012B70B574D803683D4A5F
:1006F8003D4893420CBF13460346D3F80022834279
:1007080042F00102C3F800220CD1D3F8002222F4EF
:100718007C52C3F80022D3F80022486A42EA002239
:10072800C3F8002248690124D3F81C5200F01F02C4
:1007380004FA02F2D4432540C3F81C52CD6985BBA4
:10074800D3F80C5203EBC000CE682540C3F80C5216
:100758008D8845EA06458E68C0F840520D8845EAFE
:100768000645C0F84452886968BBD3F804022040A3
:10077800C3F80402086950BBD3F814022040C3F838
:100788001402096A012904D1D3F81C120A43C3F8D8
:100798001C22D3F80022002022F00102C3F8002214
:1007A80070BD012DDFD1D3F80C5203EBC0000E68E9
:1007B8001543C3F80C528D8845EA06458E68C0F883
:1007C80040528D89CBE7D3F804021043D0E7D3F821
:1007D80014021043D3E7436A43F4802343620120A1
:1007E80070BD00BF003400400064004038B590F888
:1007F80020300446012B1FD10268022380F82030E4
:10080800136823F001031360FFF7D6FE054623683B
:10081800586810F0010001D1606238BDFFF7CCFEC6
:10082800401B0A28F3D9636A43F400336362052343
:1008380084F82030012038BD436A43F40023436222
:10084800F8E7F0B590F82040013C012C6BD8066819
:1008580041B9F468A40707D1436A43F4001343621B
:100868000120F0BD3469F5E70C013519D5F8B071F0
:1008780007F004079760002F4BD1D5F8B0717F0DB2
:100888001760D5F8B071264407F00207D760D5F88D
:10089800B47107F00F071761D5F8B471D5F8B451E2
:1008A800C7F307272D0C97615561D6F8B8211A7040
:1008B80002682244D2F8B821120A5A700268224407
:1008C800D2F8B821120C9A7002682244D2F8B821E2
:1008D800120EDA7002682244D2F8BC211A7102683A
:1008E8002244D2F8BC21120A5A7102682244D2F872
:1008F800BC21120C9A7102681444D4F8BC21120E5F
:10090800DA71036851B9DA6842F02002DA6000202F
:10091800F0BDD5F8B071FF085760B2E71A6942F028
:1009280020021A61F3E7436A43F4802397E790F8BB
:100938002030013B012B05D8026800205369194378
:1009480051617047436A43F4802343620120704732
:1009580070477047704770477047704770477047D7
:1009680070477047704770472DE9F84F0368054690
:100978005E69D3F8049016F001049F68D3F80CB0B0
:10098800D3F810A0D3F8188022D017F0010407D0AC
:100998000122B9079A6040F1A3800024FFF7D8FF2D
:1009A800FB0509D52B684FF48072B8059A6040F1B1
:1009B800A5802846FFF7CDFFFB0309D52B684FF428
:1009C8008032B8039A6040F1A7802846FFF7C2FF3B
:1009D800330707D51BF0100F04D02B68102244F4FE
:1009E8000074DA60770708D51BF0080F05D02B686C
:1009F80008222846DA60FFF7B1FFB00706D52B6852
:100A0800DB68990702D0284602F0C8F8720607D5B5
:100A18001AF0100F04D02B68102244F480641A6175
:100A2800B30608D51AF0080F05D02B680822284607
:100A38001A61FFF795FFF70606D52B681B6998071B
:100A480002D02846FFF78BFFB10308D519F0100F25
:100A580005D02B68102228465A60FFF782FFF20360
:100A680008D519F0080F05D02B68082228465A60C7
:100A7800FFF778FF33042AD519F0040F2A6824D029
:100A8800F70504D518F0010F18BF44F00104B005AC
:100A980004D518F0020F18BF44F00204710504D5FC
:100AA80018F0040F18BF44F0040433050DD518F0EE
:100AB80070030AD0302B4CD03CD8102B43D0202BBD
:100AC80044D0936923F070039361042353602CB1DD
:100AD8006B6A28461C436C62FFF745FFBDE8F88F38
:100AE8007A0705D417F0080405D1FFF734FF57E754
:100AF8004FF4006454E74FF4805451E7790502D568
:100B080044F4005458E73A0502D544F4804453E7C6
:100B18002846FFF721FF4FE7790302D544F4004444
:100B280056E73A0302D544F4803451E72846FFF7E4
:100B380014FF4DE7502B0FD0602B10D0402BC0D1A5
:100B480044F04004BDE744F00804BAE744F0100458
:100B5800B7E744F02004B4E744F08004B1E744F474
:100B68008074AEE7074A0002D36800F4E06023F41B
:100B7800E0631B041B0C43F0BF6343F400330343DF
:100B8800D360704700ED00E0194B30B5DC68C4F362
:100B98000224C4F10703251D042B28BF0423062DB6
:100BA8004FF001058CBF033C002405FA03F300282D
:100BB80003F1FF3301EA030101FA04F105FA04F431
:100BC80004F1FF3402EA040242EA01024FEA021287
:100BD80007DB00F16040D2B200F5614080F80023E5
:100BE80030BD00F00F00D2B2024B1A5430BD00BF26
:100BF80000ED00E014ED00E0002808DB42090123C5
:100C080000F01F0003FA00F0014B43F82200704780
:100C180000E100E00138B0F1807F0AD2064BF021F4
:100C2800064A5860002082F82310072298601A604C
:100C380070470120704700BF10E000E000ED00E0C1
:100C480070B5044629B14FF40063C3604FF4804384
:100C58008360E3692268002BE068A368156808BF11
:100C68004FF4806143EA00032E4818BF0021284052
:100C780043F40073034301200B4313601568FFF727
:100C8800A1FC2368402201201D605A605D68FFF7BF
:100C980099FC236801205D6000259D60DD609A69EC
:100CA80022F0BE021204120C42F080029A619E6980
:100CB800FFF788FC236801209E61DD61DD69FFF78D
:100CC80081FC22680120184BD56141F21805515961
:100CD8000B4043F0087343F0040353515659FFF790
:100CE80071FC23680120114A5E5103F580531A6094
:100CF8001D68FFF767FC226802F580531D60A36931
:100D0800012B07D141F21C01535843F4803343F0BF
:100D1800400353506369064A998811601A68054B65
:100D28001A6070BD0F8120FF233FDEF88020C102CA
:100D38004080024044800240F8B590F844300546AF
:100D48001646822B30D002688223890180F844300D
:100D5800136901F4F86403F01C012143048AE402D6
:100D6800A4B20C4344F001041461FFF725FC0746C4
:100D780014F0010007D12B685B699BB23360012333
:100D880085F84430F8BDFFF717FCC01BB0F5803F6D
:100D980007D30123032085F84430002385F8453024
:100DA800F8BD2B681C69E3E70220F8BD90F84430D1
:100DB800422B70B505462ED042238C0192B280F8A2
:100DC800443004F4F864036844F00304186900F03C
:100DD8001C0020432C8A5A61E402A4B204431C611B
:100DE800FFF7EAFB064614F0010003D1012385F85A
:100DF800443070BDFFF7E0FB801BB0F5803F07D3A0
:100E08000123032085F84430002385F8453070BD60
:100E18002B681C69E7E7022070BD00000023F7B5C6
:100E280004460093002800F0DC8090F8443003F07A
:100E3800FF021BB980F8452002F070F86A4B5A6C23
:100E480042F480425A645B6C03F480430193019B33
:100E5800664B5A6822F400025A605A68216A0A43AB
:100E68005A60236803F580531A6842F001021A6039
:100E7800FFF7A2FB0546236803F580521268D007E6
:100E88001DD41D6900F02AFD594B5A4A25F01C054E
:100E98000344934222D845F0080523684FF40042E2
:100EA800002120461D61FFF781FF054668B3012533
:100EB80001212046FFF7C4FE84F844500BE0FFF7F9
:100EC8007BFB401BB0F5FA7FD5D90325002384F8B6
:100ED800445084F84530284603B0F0BD464B474A95
:100EE8000344934202D845F00C05D6E7444B454AE3
:100EF80003449342D1D9444B444A0344934294BF98
:100F080045F0040545F01005C7E7FF20FFF75AFB39
:100F18006368002B53D0FFF74FFB41F28837064632
:100F28006A4601212046FFF707FFFFF745FB801BB4
:100F3800B8420BD901212046FFF782FE0123032581
:100F480084F84430002384F84530C4E7009B5907EF
:100F5800E6D54FF4805200212046FFF727FF0028EE
:100F6800A5D1FFF729FB41F2883706466A460121D9
:100F78002046FFF7E1FEFFF71FFB801BB842D9D8D8
:100F8800009B9A06F2D56A461F212046FFF7D4FE39
:100F980000288CD1009B13F0100218BF4FF4006298
:100FA8005B074CBF00234FF48043E260A36000213D
:100FB8002046FFF745FE012384F844308BE7A368F9
:100FC8002946E26820465B0843EAD20292B2FFF75C
:100FD800EDFE00287FF46BAF40F6FF70FFF7F2FAE2
:100FE800E5E7012577E700BF0038024000380140F7
:100FF80000D3CEFEBFE1E40040F1E9FD3F787D017A
:1010080000796CFCFF596202001F0AFA7FF0FA02AD
:101018002DE9F04F0B6885B0DFF8C08101930023FC
:101028006C4ADFF8BC910124019D9C402540AC42EC
:1010380040F0B6804C684FEA430E24F0100C0CF1D7
:10104800FF36012E12D80326876806FA0EF627EA1D
:101058000607CE6806FA0EF63E438660C4F300160D
:1010680047689E4027EA05073E4346600326C7684F
:10107800BCF1020F06FA0EF66FEA060607EA060A40
:101088008F6807FA0EF747EA0A07C76016D14FEAD2
:10109800D30A03F0070B4FF00F0C00EB8A0A4FEA54
:1010A8008B0BDAF820700CFA0BFC27EA0C0C0F6992
:1010B80007FA0BF747EA0C07CAF8207007683E40A2
:1010C80004F0030707FA0EFE4EEA06060660E6007D
:1010D80066D5D8F8446023F0030703F0030E4FF0F9
:1010E8000F0C46F4804607F180474FEA8E0EC8F889
:1010F800446007F59C37D8F8446006F480460396A8
:10110800039E0CFA0EF6D7F808A02AEA060C324E0F
:10111800B0424CD006F58066B0424AD006F58066EB
:10112800B04248D006F58066B04246D006F58066E3
:10113800B04244D0484544D006F50066B04242D09B
:1011480006F58066B04240D006F58066B0423ED0D3
:1011580006F58066B04214BF0A26092606FA0EF67E
:1011680014F4803F46EA0C06BE606FEA050716686D
:101178000CBF3E402E4314F4003F166056680CBF67
:101188003E402E4314F4801F566096680CBF3E40C4
:101198002E43A4029660D66854BF3E402E43D660C4
:1011A8000133102B7FF43FAF05B0BDE8F08F002668
:1011B800D4E70126D2E70226D0E70326CEE70426A5
:1011C800CCE70526CAE70626C8E70726C6E70826A5
:1011D800C4E700BF003C0140000002400038024064
:1011E800001402400AB1816170470904FBE74369B2
:1011F8000B4218BF090481617047F0B504468BB0F3
:1012080060B390F8BD33056803F0FF021BB980F89E
:10121800BC2301F059FF03236E46271D84F8BD3314
:10122800EB6B254613F4807355F8100B08BF236148
:1012380001F0EFFA0FCD0FC60FCD0FC695E80300EA
:10124800254686E8030097E80E0055F8100B01F0D4
:10125800A5FA064620B1022384F8BD33012554E0DF
:101268000146206801F0DBFA3046D4F804E01C2679
:101278004FF0010C0146C2B2013096451BD800233D
:101288001C261946D8B20133864522D80FCD6E46A2
:101298000FC60FCD0FC695E8030086E8030097E850
:1012A8000E00206801F0FCFA0123054600B3022273
:1012B80084F8BD23D2E706FB024383F83DC083F8D8
:1012C8003C20A3F8422083F83F10596499641965BB
:1012D800D1E706FB004282F8FD1182F8FC0182F892
:1012E800FF11C2F80412C2F80812C2F81012C9E7B6
:1012F80084F8380084F8BD33636A012B02D1204694
:1013080000F006F8206801F085FB28460BB0F0BD18
:10131800012102680346C0F8FC13002083F8F40397
:10132800936943F000639361536D43F0805343F036
:101338000303536570470000024A136843F480733F
:101348001360704700700040194B37B51A6C194C80
:1013580042F080521A641B6C03F080530193019B86
:10136800236843F480332360FFF726F90546636852
:10137800DA030CD5236843F400332360FFF71CF924
:101388000C4C054663689B030AD5002006E0FFF76E
:1013980013F9401BB0F57A7FE9D9032003B030BDBB
:1013A800FFF70AF9401BB0F57A7FEBD9F5E700BFE4
:1013B80000380240007000402DE9F341044608B9A6
:1013C80001203FE00368D80710D42368990760D448
:1013D8002368190700F1A58023685A0700F1C68021
:1013E800A069002840F0308100202BE0944B9A68D7
:1013F80002F00C02042A07D09A6802F00C02082AAC
:101408000AD15B685A0207D58D4B1B689B03DCD554
:101418006368002BD9D1D3E76368894DB3F5803F62
:1014280013D12B6843F480332B60FFF7C5F8844D44
:1014380006462B689F03C8D4FFF7BEF8801B6428B4
:10144800F7D9032002B0BDE8F0819BB92B6823F4DB
:1014580080332B602B6823F480232B60FFF7ACF8D4
:1014680006462B689803B0D5FFF7A6F8801B6428BA
:10147800F7D9E6E7B3F5A02F2B6803D143F480230F
:101488002B60CEE723F480332B602B6823F4802372
:10149800CAE76B4B9A6812F00C0F07D09A6802F0F3
:1014A8000C02082A11D15B6859020ED4644B1A68E1
:1014B800920702D5E268012A82D11A68216922F0CE
:1014C800F80242EAC1021A6082E7E3685C4DBBB1E8
:1014D8002B6843F001032B60FFF76EF806462B6874
:1014E8009F0707D52B68226923F0F80343EAC20354
:1014F8002B606DE7FFF760F8801B0228EFD9A0E7A3
:101508002B6823F001032B60FFF756F806462B687B
:1015180098077FF55DAFFFF74FF8801B0228F6D9D3
:101528008FE76369464D83B16B6F43F001036B67C7
:10153800FFF742F806466B6F9B073FF54DAFFFF785
:101548003BF8801B0228F6D97BE76B6F23F0010379
:101558006B67FFF731F806466B6F9F077FF53CAF67
:10156800FFF72AF8801B0228F6D96AE7344B1A6C71
:10157800D00027D41A6C012642F080521A641B6CE2
:1015880003F080530193019B2E4D2B68D9051BD581
:10159800A3682B4D012B27D12B6F43F001032B6739
:1015A80041F28835FFF708F8254F80463B6F9B07C7
:1015B8003FD5002E3FF414AF214A136C23F080531B
:1015C80013640DE70026DFE72B6843F480732B6074
:1015D800FEF7F2FF07462B68DA05D9D4FEF7ECFFD1
:1015E800C01B6428F7D92CE7ABB92B6F41F28838B8
:1015F80023F001032B672B6F23F004032B67FEF7FF
:10160800DBFF07462B6F9807D3D5FEF7D5FFC01B26
:101618004045F7D915E7052B2B6F03D143F0040399
:101628002B67B9E723F001032B672B6F23F0040323
:10163800B5E7FEF7C1FFA0EB0800A842B6D900E75E
:1016480000380240007000403C4DAB6803F00C03CA
:10165800082B42D02B68022823F080732B602FD1EF
:10166800FEF7AAFF06462B68990123D4226AE3698C
:101678001343626A43EA8213E26A43EA0263226B13
:1016880043EA0273A26A2D4C5208013A43EA024324
:101698006B602B6843F080732B60FEF78DFF054667
:1016A80023689A013FF5A0AEFEF786FF401B02288B
:1016B800F6D9C6E6FEF780FF801B0228D3D9C0E61C
:1016C800FEF77AFF04462B689B017FF58DAEFEF787
:1016D80073FF001B0228F6D9B3E601286B683FF4B4
:1016E800B1AE03F48002E1698A427FF469AE03F087
:1016F8003F02216A8A427FF463AE47F6C072616A8C
:101708001A40B2EB811F7FF45BAEA26A03F440314A
:101718005208013AB1EB024F7FF452AE03F0706207
:10172800E16AB2EB016F7FF44BAE226B03F0E0434A
:10173800B3EB027F14BF0120002083E6003802408B
:10174800134908B58B6803F00C03042B03D0082B4E
:1017580003D0104808BD104808BD4A684B6849685E
:1017680002F03F0213F48003C1F388111ABF0A483C
:1017780000230848A1FB0001FEF75AFD044B5B68F3
:10178800C3F3014301335B00B0FBF3F008BD00BFB6
:10179800003802400024F40000127A002DE9F041DC
:1017A8000D46044610B90120BDE8F081464A136889
:1017B80003F00F038B4229D321688F0731D4C80760
:1017C80044D4414A136803F00F039D4268D322684A
:1017D800510771D4130707D53C4A2169936823F44C
:1017E800604343EAC1039360FFF7AAFF374B384AC7
:1017F8009B68C3F30313D35CD840364B1860364B51
:101808001868FEF79DFE0020BDE8F081136823F0FC
:101818000F030B431360136803F00F039942C2D1FF
:10182800CAE711F0040F294B03D09A6842F4E0523A
:101838009A600E0703D59A6842F460429A609A68E3
:10184800A06822F0F00202439A60B8E761681F4B73
:1018580001291A681CD112F4003FA4D09A6841F2F9
:1018680088381A4E22F003020A439A60FEF7A4FE53
:101878000746B368626803F00C03B3EB820FA0D08D
:10188800FEF79AFEC01B4045F3D90320BDE8F0815E
:10189800022902D112F0007FDFE712F0020FDCE725
:1018A800136823F00F032B431360136803F00F032F
:1018B8009D427FF478AF8AE70449E0688B6823F497
:1018C800E05303438B6085E7003C02400038024048
:1018D800053300082000002004000020014B186890
:1018E800704700BF20000020044B054A9B68C3F3E3
:1018F8008223D35C034A1068D840704700380240FE
:101908001533000820000020044B054A9B68C3F3E8
:101918004233D35C034A1068D8407047003802400D
:1019280015330008200000202DE9F743026804461B
:1019380012F001060BD0BA4B996821F400019960A6
:10194800466B99683143B6FA86F67609996012F4BF
:10195800002512D0B249E56BD1F88C30B5F5801F5F
:1019680023F4401308BF012643EA050316BFB5FA5E
:1019780085F500256D09C1F88C30D70210D5A84827
:10198800216CD0F88C30B1F5800F23F4400343EA82
:101998000103C0F88C3000F0A981002908BF012597
:1019A80012F0807F18BF0126900631D59C4B9D4FC1
:1019B8001A6C42F080521A641B6C03F08053019336
:1019C800019B3B6843F480733B60FEF7F5FD80465E
:1019D8003B68D90540F18C81914F3B6F13F44073FC
:1019E80040F09181236B03F44072B2F5407F8C4A3A
:1019F80040F0AF81916823F0704021F4F81120F491
:101A0800407001439160C3F30B03116F0B431367DD
:101A18002368DF060CD5824AD2F88C1021F0807139
:101A2800C2F88C10D2F88C10A06B0143C2F88C104D
:101A3800580408D57A49606ED1F8902022F44032D3
:101A48000243C1F89020190408D57549A06ED1F851
:101A5800902022F440220243C1F89020DA0308D5EE
:101A68006F49E06ED1F8902022F440120243C1F889
:101A780090209F0308D56A49206FD1F8902022F45E
:101A880040020243C1F89020580608D56449606CAA
:101A9800D1F8902022F003020243C1F890201906E1
:101AA80008D55F49A06CD1F8902022F00C020243BF
:101AB800C1F89020DA0508D55949E06CD1F8902092
:101AC80022F030020243C1F890209F0508D55449FE
:101AD800206DD1F8902022F0C0020243C1F8902076
:101AE800580508D54E49606DD1F8902022F440720F
:101AF8000243C1F89020190508D54949A06DD1F8CD
:101B0800902022F440620243C1F89020DA0408D5FC
:101B18004349E06DD1F8902022F440520243C1F8C5
:101B280090209F0408D53E49206ED1F8902022F4D9
:101B380040420243C1F89020580208D53849A06FA6
:101B4800D1F8902022F080620243C1F890209902D7
:101B58000CD53348E16FD0F89020B1F1006F22F036
:101B6800006208BF01250A43C0F8902013F0080F4F
:101B780018BF01255A0308D52949606FD1F890206C
:101B880022F040720243C1F890201F0209D524496F
:101B9800D4F88000D1F8902022F080520243C1F896
:101BA8009020580109D51E49D4F88400D1F8902016
:101BB80022F000520243C1F89020190109D51849B2
:101BC800D4F88800D1F88C2022F000720243C1F8C2
:101BD8008C20DA0009D51249D4F88C00D1F88C2071
:101BE80022F080620243C1F88C20012E00F0B580FB
:101BF800B3F1007F00F0B180012D75D1084D2B683D
:101C080023F080532B60FEF7D7FC06462B689F0015
:101C180000F1278121680E0306D5E36B43B103E089
:101C28000038024000700040CD021DD5236CDBB99E
:101C3800934AD2F88830D2F8880003F4403300F091
:101C4800E0400343606943EA8013A06943EA006304
:101C5800C2F88830D2F88C30A06A23F4F8530138DF
:101C680043EA0023C2F88C30880215D5E36FB3F13C
:101C7800006F11D1824AD2F88830D2F8880003F078
:101C8800706300F0E0400343606943EA8013206A10
:101C980043EA0043C2F888300A0719D57849D1F8D1
:101CA8008820D1F8883002F0706203F4403313437F
:101CB800626943EA8213E26943EA0273C1F8883031
:101CC800D1F88C30E26A23F440331343C1F88C30E6
:101CD8006B4C236843F080532360FEF76DFC054688
:101CE80023689B0040F1C480002009E0012657E6E4
:101CF800FEF762FCA0EB080064287FF669AE0320BB
:101D080003B0BDE8F083226B02F4407293423FF4C3
:101D180069AE3B6F3A6F23F4407342F480323A67FE
:101D28003A6F22F480323A673B673B6FDA077FF5F8
:101D380059AEFEF741FC41F2883980463B6F9B075C
:101D48003FF550AEFEF738FCA0EB08004845F5D942
:101D5800D5E7916821F4F81154E6494E336823F029
:101D680080633360FEF728FC074633681B0172D492
:101D78002268D70712D5636B83B9D6F88430D6F8B2
:101D8800841003F4403301F070610B43616843EA47
:101D98008113A16843EA0173C6F88430160303D59A
:101DA800E36BB3F5801F05D0D0021ED5236CB3F5C5
:101DB800800F1AD13249D1F88430D1F8840003F465
:101DC800403300F0E0400343606843EA8013E06872
:101DD80043EA0063C1F88430D1F88C00636A20F0CC
:101DE8001F00013B0343C1F88C30D10111D52449B0
:101DF800D1F88430D1F8840003F0706300F0E0403B
:101E08000343606843EA8013206943EA0043C1F84A
:101E1800843092010DD5236962681B0443EA82135A
:101E2800E26843EA0263A26843EA0273144AC2F80A
:101E38008430134E336843F080633360FEF7BCFB95
:101E4800074633681B013FF5D7AEFEF7B5FBC01B4D
:101E58006428F6D953E7FEF7AFFBC01B642884D982
:101E68004DE7FEF7A9FB801B64287FF6CFAE46E757
:101E7800FEF7A2FB401B64287FF632AF3FE700BFA6
:101E8800003802400368DA6842F00102DA60074A63
:101E980099680A40062A06D0B2F5803F03D01A682E
:101EA80042F001021A600020704700BF07000100DD
:101EB800704770477047704703681A69910710B5F3
:101EC80004460FD5DA6892070CD56FF002021A6142
:101ED80001229B690277990700F08580FFF7E9FFE7
:101EE8000023237723681A69520710D5DA68500748
:101EF8000DD56FF0040220461A6102229B692277F1
:101F080013F4407F75D0FFF7D4FF002323772368AD
:101F18001A6911070FD5DA6812070CD56FF0080295
:101F280020461A610422DB6922779B0767D0FFF7F6
:101F3800C0FF0023237723681A69D00610D5DA6812
:101F4800D1060DD56FF0100220461A610822DB6910
:101F5800227713F4407F58D0FFF7ABFF0023237795
:101F680023681A69D20708D5DA68D00705D56FF053
:101F7800010220461A6101F049F923681A6911061D
:101F880008D5DA68120605D56FF0800220461A6176
:101F980000F0AFF923681A69D00508D5DA68110688
:101FA80005D56FF4807220461A6100F0A3F9236802
:101FB8001A69520608D5DA68500605D56FF040024E
:101FC80020461A61FFF777FF23681A69910622D520
:101FD800DA6892061FD56FF0200220461A61BDE824
:101FE800104000F085B9FFF763FF2046FFF762FF56
:101FF80076E7FFF75DFF2046FFF75CFF85E7FFF711
:1020080057FF2046FFF756FF93E7FFF751FF20469B
:10201800FFF750FFA2E710BD304A0368904212D084
:10202800B0F1804F0FD0A2F57C4290420BD002F560
:102038008062904207D002F58062904203D002F598
:102048007842904219D14A6823F070031343234A17
:10205800904229D0B0F1804F26D0A2F57C42904220
:1020680022D002F5806290421ED002F58062904232
:102078001AD002F57842904216D0194A904213D0ED
:1020880002F5806290420FD002F5806290420BD038
:10209800A2F59832904207D002F58062904203D0B0
:1020A80002F58062904203D123F44073CA68134357
:1020B8004A6923F08003134303608B68C3620B688B
:1020C8008362064B984203D003F58063984201D19E
:1020D8000B69036301234361704700BF000001409F
:1020E8000040014010B50446A0B190F83D3003F01F
:1020F800FF021BB980F83C2000F096FF02232068FD
:10210800211D84F83D30FFF787FF0123002084F864
:102118003D3010BD012010BD10B50A43846842EA65
:10212800032324F47F442343836010BD90F83C309C
:10213800012B70B504464FF0020017D084F83D001B
:102148000123206884F83C308268414B1340836047
:102158000B68402B65D015D8102B0CD007D853B17D
:102168000123002084F83D3084F83C0070BD202B0A
:1021780001D0302BF4D1826843F0070322F07002BB
:1021880013431AE0602B34D019D8502BE8D14A6891
:10219800CE68016A056A21F00A0125F001050A43A3
:1021A8000562836923F0F00343EA06138361026240
:1021B800836823F0700343F057038360D0E7702BE4
:1021C8000CD0B3F5005FCBD1CB684A688968FFF7BC
:1021D800A3FF2268936843F4804308E0CB684A6809
:1021E8008968FFF799FF2268936843F07703936043
:1021F800B6E74D68CE68016A21F010010162826974
:10220800036A22F4704223F0A00342EA063243EA4A
:10221800051382610362836823F0700343F0670348
:10222800CBE74A68CE68016A056A21F00A0125F001
:1022380001050A430562836923F0F00343EA0613A4
:1022480083610262836823F0700343F04703B4E7B5
:102258008800FEFF90F83C30012B4FF0020370B568
:102268003ED080F83D30012203681E4D80F83C20A6
:10227800AB425A689C6802D01B4EB34203D122F489
:1022880070024E6832430E6822F07002AB4242EA96
:1022980006025A6019D0B3F1804F16D0134A934200
:1022A80013D002F5806293420FD002F58062934208
:1022B8000BD002F57842934207D002F57052934250
:1022C80003D0A2F59432934204D1896824F08002A5
:1022D8000A439A60012380F83D30002380F83C309F
:1022E800184670BD00000140000401400004004091
:1022F800704770477047000038B5C26904460368E4
:10230800816800691D680143606901439048114371
:102318002840256A0143E0681960596821F4405152
:1023280001435960A1699868294320F4306001434A
:10233800996088498B4217D1874B8849D3F89030E8
:1023480003F00303B2F5004FCB5C29D1082B00F250
:102358009D80DFE813F08C00E800EE009B00FA0097
:102368009B009B009B0076007D498B4206D17A4BEF
:102378007C49D3F8903003F00C03E3E77A498B42A9
:102388001DD1754BD3F8903003F03003102B00F0BB
:10239800D9800ED8002B67D0B2F5004F76D0102325
:1023A800082B73D8DFE803F0999FA272B472727297
:1023B800B700202B00F0BA80302B3FD0ECE76B49F8
:1023C8008B420DD1644BD3F8903003F0C003402BFF
:1023D80000F0B880DED9802B00F0A880C02BECE795
:1023E80063498B4210D15C4BD3F8903003F44073AF
:1023F800B3F5807F00F0A680CCD9B3F5007F00F05C
:102408009580B3F5407FD8E75A498B421ED1524B8D
:10241800D3F8903003F44063B3F5806F00F09280F6
:1024280006D8002B7CD0B2F5004F2FD110238DE7B2
:10243800B3F5006F7AD0B3F5406FF4D1B2F5004F21
:1024480069D16368580800F5803078E04A498B42C2
:1024580024D1414BD3F8903003F44053B3F5805F57
:1024680070D015D8002BDED1B2F5004F35D1FFF76B
:102478003BFA6268530803EB4000B0FBF2F080B20D
:102488004FF6EF73A0F110029A421AD9012020E00A
:10249800B3F5005F4AD0B3F5405FCEE737498B42CA
:1024A800F4D12D4BD3F8903003F44043B3F5804F6B
:1024B80048D07FF66FAFB3F5004F37D0B3F5404F34
:1024C8007BE720F00F03C0F3420022681843D06076
:1024D800002000232366636638BDFFF705FA6368AA
:1024E80000EB530008E0FFF70FFAF8E763685808B5
:1024F80000F5740000F51050B0FBF3F080B24FF611
:10250800EF73A0F110029A42C0D82368D860DFE7C1
:10251800FFF716F9E3E76368580800F50040EBE7B2
:10252800B2F5004FDFD1FFF7EFF9A2E7B2F5004FA0
:10253800DCD16368580800F1F47000F59040B0FBF6
:10254800F3F09CE7B2F5004FE2D1FFF7F9F890E716
:10255800F369FFEF0010014000380240F432000830
:1025680000440040F832000800480040004C004099
:10257800005000400014014000780040007C0040FA
:10258800436ADA0710B506D50168846A4A6822F4F6
:10259800003222434A609C0706D50168C46A4A682B
:1025A80022F4803222434A60590706D50168046B39
:1025B8004A6822F4802222434A601A0706D5016835
:1025C800446B4A6822F4004222434A60DC0606D57E
:1025D8000168846B8A6822F4805222438A609906D3
:1025E80006D50168C46B8A6822F4005222438A60C7
:1025F8005A0610D50168046C4A68B4F5801F22F4A5
:10260800801242EA04024A6005D14A68446C22F406
:10261800C00222434A601B0606D50268816C5368D3
:1026280023F400230B43536010BD2DE9F041069DB0
:1026380004460F46164698462168CA6937EA0203D7
:102648000CBF01220022B24202D00020BDE8F08176
:10265800681CF2D0FDF7B0FFA0EB080085422068A7
:10266800036800D37DB923F4D0730360836823F033
:102678000103836020236367A3670023032084F892
:102688007030BDE8F0815A07D6D5C3691B05D3D58C
:102698004FF400630362036823F4D0730360836814
:1026A80023F00103836020236367A367E367E4E7FC
:1026B80073B500260446C667FDF77EFF2368054606
:1026C8001B681A0715D423681B685B070AD56FF0C7
:1026D8007E4300224FF48001204600932B46FFF7EB
:1026E800A4FF90B920230020636784F87000A367D3
:1026F8000CE06FF07E4332464FF40011009303461E
:102708002046FFF792FF0028DDD0032002B070BDFD
:1027180010B5044640B3436F1BB980F8703000F021
:102728009FFC2268242320466367136823F0010373
:102738001360FFF7E1FD012816D0636A13B1204644
:10274800FFF71EFF236820465A6822F490425A6019
:102758009A6822F02A029A601A6842F00102BDE8DB
:1027680010401A60FFF7A4BF012010BD0A4B013BBF
:1027780001D1032070470269002AF8DA0369064A82
:1027880043F001030361013AF3D0036913F0010335
:10279800F9D11846704700BF410D030084B038B521
:1027A80005AD044685E80E000A9B012B26D1836BF4
:1027B80023F480338363C36823F4840323F0400342
:1027C800C360C36823F44013C360119B012B03D17A
:1027D800C36843F48013C3602046FFF7C7FF089B14
:1027E800012B07D1A36843F00603A360A36843F055
:1027F8002003A360BDE8384004B07047C36843F0C5
:102808004003C360FFF7B2FFA36B43F48033A363B5
:10281800E5E7836823F0010383600020704708B56B
:10282800C368012923F0C043C36008D1C36843F0DB
:102838000053C3603220FDF7C5FE002008BD19B95A
:10284800C36843F08043F4E7012008BD8901074AC3
:1028580041F020010161013A05D0036913F020031A
:10286800F9D1184670470320704700BF410D030097
:102878001023064A0361013A05D0036913F01003D7
:10288800F9D1184670470320704700BF410D030077
:10289800D0F800381943C0F800180020704700002D
:1028A80084B02DE9F843044609A80F4680E80E00D5
:1028B80000230B9A0E99139D1E4603F14000013325
:1028C80004EB80000F2B4660F7D104F50066002D5D
:1028D8006BD1736843F002037360A36B23F4001396
:1028E800A363236843F040032360236843F0800315
:1028F800236000230129C4F8003ED4F80038C4F846
:10290800003859D1002A55D100212046FFF7C0FFD1
:1029180010212046FFF79AFF01462046FFF7A8FF3F
:1029280000284DD1081C18BF0120002304F51062AF
:102938004FF0904E4FF0006C19464FF67F383361D8
:102948007361F361BB423DD1002104F530624FF061
:10295800904E4FF0006C0F464FF67F388B4244D1B3
:10296800336923F4807333610023A3616FF08043DC
:1029780063610C9B1BB9A36943F01003A361A269AF
:10298800234B1343A3610F9B1BB1A36943F00803B7
:10299800A361012D05D1A36943F0804343F00403EB
:1029A800A361BDE8F84304B07047A36B43F4001378
:1029B800A3639EE70121A8E70329A3D00321A4E785
:1029C8000120B2E7D2F80090B9F1000F0BDA3BB959
:1029D800C2F800C011610133C2F808802032B1E7A3
:1029E800C2F800E0F6E71160F4E7D2F80090B9F118
:1029F800000F0BDA39B9C2F800C017610131C2F80B
:102A080008802032AAE7C2F800E0F6E71760F4E78A
:102A180000383C8008B5D0F8043843F00203C0F809
:102A280004380320FDF7CEFD002008BD84B070B542
:102A38008AB00EAC0EAE84E80F00264C0FCE2546A9
:102A48000FC50FCE0FC596E8030003234FF42022CD
:102A580085E80300204822614FF4401284E8090009
:102A680000236261A360E36023766376A376E3764E
:102A7800237763772046FDF7B7FD0028FAD10123B5
:102A8800009001906946029003900490059006908A
:102A9800079009900F480893FDF722FE28B10120FE
:102AA8000AB0BDE8704004B070470C4A02210C4BD4
:102AB800126818800B4B1268586006481A60FDF7B8
:102AC80036FF0028EBD10348FDF790FE003018BF11
:102AD8000120E5E7640000200064004008000020B1
:102AE8004C0000208C0000202DE9F041114E0025FB
:102AF800114C3746DFF8448033889D4217DAD8F8FE
:102B0800003021681A6891420CD12279E0681A7164
:102B1800A268D8609A6062795A711B692BB93B88A0
:102B2800013B3B8001351434E6E79847F7E700207E
:102B3800BDE8F0814C000020500000200800002073
:102B4800F0B58BB00021114801AC03AA2346FDF76C
:102B580078FE0F4B039A1E68964214D101220D4845
:102B680014210D4D5A6003889DF814E059439DF8CF
:102B7800187001334A194E51079982F804E05771C9
:102B88009160D46003800BB0F0BD00BF64000020EA
:102B98008C0000204C00002050000020024B834293
:102BA80001D1FFF7CDBF70476400002010B5B8B061
:102BB80034220021022407A800F084FB14220021FB
:102BC80002A800F07FFB0021902214A800F07AFBF5
:102BD800FEF7B2FB1F4B07A81A6C42F080521A642A
:102BE8001B6C1D4A03F080530093009B136823F469
:102BF800404343F480431360136860220D9403F448
:102C08004043109211940193019B012307934FF4C1
:102C1800A02308934FF480030E9304230F93129379
:102C2800FEF7CAFBFEF790FB0F23039400240293E0
:102C38004FF48053032102A8059304940694FEF7E9
:102C4800ADFD064B14A8279414933394FEF76CFE3D
:102C580038B010BD0038024000700040000120006C
:102C680080B594B00024FDF78FFC0126FFF79EFF86
:102C7800142200210FA800F025FB6F4B44F28101BC
:102C88006E481A6B80256E4F42F004021A631A6B65
:102C980002F004020692069A1A6B42F080021A6346
:102CA8001A6B02F080020792079A1A6B42F001022F
:102CB8001A631A6B02F001020892089A1A6B42F022
:102CC80002021A631A6B02F002020992099A1A6B3D
:102CD80042F008021A631A6B02F008020A920A9A72
:102CE8001A6B42F040021A6300221B6B03F0400388
:102CF8000B930B9BFEF776FA002240215148FEF712
:102D080071FA4FF400530FA94F480F934F4B11948A
:102D18001093FEF77DF944F281030FA947480F93FA
:102D2800109611941294FEF773F940230FA94548A1
:102D38000F93109611941294FEF76AF90FA941485F
:102D48000F9510941194FEF763F94148E122414B25
:102D5800048280E8480043691C7043695D704369D8
:102D68003D4D9A704369DC7043691C7143695C711D
:102D78004FF400038461C4610362FEF74FF83748DB
:102D88004FF4E133364A8460C46004618461C461ED
:102D98000462446280E80C000C234361FFF7B8FC2E
:102DA80030484FF0A04106230461C66104624462C2
:102DB800C662046380E80A000223C3608361FEF7E9
:102DC8001CFA102221460FA800F07CFA4BF680333B
:102DD8004FF080400C940D940E94AC60EE6007F1B7
:102DE80010062C61AC6185E809002846FFF77AF9DE
:102DF8004FF480530FA928460F93FFF797F90CA9B2
:102E080028460C940E94FFF725FA6C460FCE0FC493
:102E180096E8030084E80300084C97E80F00FFF7E2
:102E280005FE284600F0BAF9FFF75EFE01212046AC
:102E380000F0D4F9F8E700BF00380240000402406F
:102E48006400002000180240000802400000111031
:102E5800580500200080024018050020940000203A
:102E680000480040140100204FF480410148FEF75B
:102E7800BEB900BF000402400A4B82B01A6C42F08F
:102E880080521A641A6C02F080520092009A5A6CAE
:102E980042F480425A645B6C03F480430193019BC3
:102EA80002B070470038024010B588B004461422BA
:102EB800002103A800F006FA2268164B9A4226D190
:102EC80003F5EA3303A914481A6C42F000721A6435
:102ED8001A6C02F000720192019A1A6B42F0080211
:102EE8001A6302221B6B049203F008030293029BED
:102EF80003230393069309230793FEF789F8002217
:102F080014201146FDF740FE1420FDF775FE08B0A9
:102F180010BD00BF00640040000C0240F0B58DB049
:102F280004461422002107A800F0CCF92268394B86
:102F38009A426DD1A3F59043022603250B241A6B00
:102F480007A93548002742F000721A631A6B02F08D
:102F580000720092009A1A6B42F080621A631A6B30
:102F680002F080620192019A1A6B42F000621A63C1
:102F78001A6B02F000620292029A1A6B42F0040283
:102F88001A631A6B02F004020392039A1A6B42F056
:102F980001021A631A6B02F001020492049A1A6B76
:102FA80042F002021A631A6B02F002020592059AB5
:102FB8001A6B42F040021A631B6B089603F0400339
:102FC8000A950B940693069B32230793FEF720F885
:102FD800862307A911480793089609970A950B9421
:102FE800FEF716F84FF4005307A90D480793089603
:102FF80009970A950B94FEF70BF84FF4205307A98D
:1030080008480793089609970A950B94FEF700F865
:103018000DB0F0BD008002400008024000000240F0
:1030280000040240001802400368B3F1804F07B55E
:1030380012D103F50E331C201A6C42F001021A64F7
:1030480000221B6C114603F001030193019BFDF75D
:103058009BFD1C20FDF7D0FD03B05DF804FB0000CC
:1030680010B588B004461422002103A800F02AF9FC
:103078002268134B9A4220D103F5F83303A911486B
:103088001A6C42F480221A641A6C02F480220192AB
:10309800019A1A6B42F008021A631B6B03F00803CB
:1030A8000293029B4FF44073039302230493032378
:1030B800069307230793FDF7ABFF08B010BD00BFC9
:1030C80000480040000C024010B588B004461422A5
:1030D800002103A800F0F6F82368B3F1A04F32D11D
:1030E8001A4C03A91A48236B43F001032363236B8B
:1030F80003F001030093009B4FF4E853039302236A
:103108000493032306930A230793FDF781FF4FF4E3
:10311800007303A90E480393002304930593FDF756
:1031280077FF636B43F080036363636B03F0800393
:103138000193019B636C43F480436364636C03F401
:1031480080430293029B08B010BD00BF00380240C4
:10315800000002407047FEE7FEE7FEE7FEE7704723
:1031680070477047FDF71CBA0148FDF7FDBB00BF6B
:10317800640000200148FEF79FBE00BF180500202C
:10318800054BD3F8882042F47002C3F888204FF02A
:1031980000629A60704700BF00ED00E0044B054AEA
:1031A800186000231360044A1360FEF76BBE00BF6B
:1031B800A00500204000002044000020064B1B68AA
:1031C800DA43824205D35B1A98428CBF0020012063
:1031D80070470120704700BF4000002070B5094CBF
:1031E80005460E464FF4FA702168FFF7E7FF40B135
:1031F800054B314628461B682360BDE87040FDF743
:10320800F6BF70BD4400002040000020044B1B683E
:10321800834201BF034A136801331360704700BF3C
:10322800A005002040000020DFF834D0002103E092
:103238000C4B5B58435004310B480C4B42189A42D4
:10324800F6D30B4A02E0002342F8043B094B9A42AA
:10325800F9D3FFF795FF00F011F8FFF701FD70476C
:10326800000008203033000800000020240000205F
:1032780024000020A4050020FEE7000070B50D4ED4
:103288000D4CA41BA4100025A54209D10B4E0C4CD3
:1032980000F020F8A41BA4100025A54205D170BD9C
:1032A80056F8253098470135EEE756F82530984707
:1032B8000135F2E7283300082833000828330008CE
:1032C8002C33000802440346934200D1704703F8A8
:1032D800011BF9E7F8B500BFF8BC08BC9E4670476B
:0C32E800F8B500BFF8BC08BC9E4670475B
:1032F4000104020800101010041010100210101025
:103304000800000000000000000102030406070892
:0C3314000900000000010203040000009A
:0833200048CFFF7F010000000F
:043328001D0200087A
:04332C00F90100089B
:1033300001000000100000000C000020D00100007F
:10334000000000000000000000000000712E0008D6
:043350000024F40061
:04000005080032318C
:00000001FF
